:1000000012C0189518951895189518951895189563
:100010001895189518951895189518951895189578
:100020001895189518958FE58DBFC8E3E0E24E2E20
:1000300084E08EBFD4E0F4E05F2EA89584B7082E4C
:10004000877F84BF88E1992781BD91BDEEEFF3E002
:10005000A0E6B0E088278D933197E9F7B3D1662405
:10006000E8E7F0E080E4F6D158E0C895802DECD1C7
:1000700031965A95D1F704C020201F1F1F1F202042
:10008000E8E9F0E088E4E6D158E0C895802DDCD1BD
:1000900031965A95D1F704C0010101010101010116
:1000A000E8EBF0E080E5D6D158E0C895802DCCD1C2
:1000B00031965A95D1F704C010101010101010107E
:1000C000E8EDF0E088E5C6D158E0C895802DBCD1B8
:1000D00031965A95D1F704C010101F1F1F1F101022
:1000E000E8EFF0E080E6B6D158E0C895802DACD1BD
:1000F00031965A95D1F704C001011F1F1F1F01013E
:10010000E8E1F1E088E6A6D158E0C895802D9CD1C1
:1001100031965A95D1F704C020201C1C1C1C2020AD
:1001200086E886B980E487B9379A38D18CE092D1D5
:1001300083E911E042D1E4EEF5E02AD183E915E04C
:100140003CD1E6EEF5E024D183E91AE036D1EAEEBF
:10015000F5E01ED183E91FE030D1EEEEF5E018D1D5
:1001600083E913E12AD18FED6FD1E2EFF5E010D1F1
:1001700007B1007F07B9B8D1A0E6B0E08D939C939A
:10018000A0E6B0E00D911C9145E050E0A3D1A2E6BD
:10019000B0E00D931C93009162004AE013D2A4E6F4
:1001A000B0E08C93A2E6B0E00D911C914AE050E0E3
:1001B000CDD0A2E6B0E04D935C938FE711E0FDD087
:1001C000E2E6F0E0A8E0B4E0AAD1DAD0E4EFF5E0AE
:1001D000DFD0E4E6F0E0A8E0B4E0AFD1D1D0009108
:1001E000620042E0EFD1A6E6B0E00C938FEB11E0A5
:1001F000E4D081E080936500409166000091650045
:10020000041710F009F029C000916500013009F0D1
:1002100003C083E019D11AC0053009F003C084E09F
:1002200013D114C00A3009F003C084E00DD10EC010
:100230000F3009F003C084E007D108C0043109F091
:1002400003C084E001D102C080E0FED0A5E6B0E0AA
:100250008C918F5F8C9308F4CFCF0091660042E0C1
:10026000B1D1A7E6B0E08C9300916700003010F0A8
:1002700009F001C008C085E0E7D0A6E6B0E08C91A7
:100280008E5F8C9305C0A6E6B0E08C918F5F8C9357
:10029000809166008093650000916500043110F044
:1002A00009F029C000916500013009F003C082E027
:1002B000CBD01AC0053009F003C081E0C5D014C00E
:1002C0000A3009F003C081E0BFD00EC00F3009F042
:1002D00003C081E0B9D008C0043109F003C081E057
:1002E000B3D002C080E2B0D0A5E6B0E08C918F5FC1
:1002F0008C9308F4D1CF88EE93E0D8D039CFF8941E
:10030000FFCF08D0E7D000FC10D0089503D01ED056
:1003100001F8F9CF0024E89457FF02C009D068948F
:1003200000F80BD010F80124089502D009D00895E8
:10033000509540954F5F5F4F0895E89417FF0895DB
:10034000009510950F5F1F4F68940895352F242F47
:10035000E894452B11F468940895512F402F0027FD
:10036000112780E1440F551F001F111F021B130BA3
:10037000416018F4020F131F4E7F8A9599F7089574
:10038000A8E0B4E08D91882311F05ED0FBCF0895F2
:10039000B4D0802D11F058D0FBCF089581E05AD011
:1003A0000ED080E857C08FE7213039F08FEB223034
:1003B00021F083E9233009F083ED810F4BC083E006
:1003C000992774C08AEF90E071D0889A899A8A9AA6
:1003D0008B9A8E9A8F9A979885E090E067D096983E
:1003E00090989198929A939A969AEF93FF93E6EF4A
:1003F000F0E050D0FF91EF91969855D0969AEF93F8
:10040000FF93E6EFF0E046D0FF91EF9196984BD046
:10041000969AEF93FF93E6EFF0E03CD0FF91EF91D7
:10042000969841D09398969AEF93FF93E6EFF0E079
:1004300031D0FF91EF91969836D088E20BD08EE0C4
:1004400009D086E007D00895979A829505D004D008
:100450002AD008959798F9CF859510F4939A01C002
:100460009398859510F4929A01C09298859510F40E
:10047000919A01C09198859510F4909A01C0909836
:10048000969AEF93FF93E6EFF0E004D0FF91EF919F
:10049000969808953197F1F70895689462F8089551
:1004A000E89462F8089581E090E000C0EF93FF9334
:1004B000EE27E82BE92B31F0E4ECF9E03197F1F786
:1004C0000197D1F7FF91EF91089501911191219139
:1004D000308108950F92B801469F8001479F100D0B
:1004E000569F100D0F900895369A3699FECF369A82
:1004F0003699FECF84B195B10895C8953196002004
:100500000895000F111F221F331F089500951095A5
:10051000209530950F5F1F4F2F4F3F4F089501914A
:1005200010810DC0D2DF0DC0D0DF10C0019110814D
:1005300017FF05C03FEF2FEF04C0008111272227CE
:10054000332737FF03C0E2DF8DE28D93CF92DF9236
:10055000EF92AA24BB24CC24DD24EE2440E2EAE07E
:10056000FF2755E093E38081890F87FD9F7083FD0E
:10057000907F891B81935A95A9F7C3DFAA1CBB1CE6
:10058000CC1CDD1CEE1C4A9551F7E894EFE0FF27E8
:1005900082910BD0EB30E0F71EF068948A2D09D0E1
:1005A0004D93EF90DF90CF900895982F829501D0D2
:1005B000892F8F70805D26F0803309F40895689448
:1005C0008D930895FF93881BF9E0001FFA9511F4AD
:1005D000FF910895881F841B18F4840F8894F5CF29
:1005E0000894F3CF30003130000032300000333057
:0605F000000043002C0096
:00000001FF
